{
  "_format": "hh-sol-artifact-1",
  "contractName": "EcoReceipt",
  "sourceName": "contracts/EcoReceipt.sol",
  "abi": [
    {
      "inputs": [],
      "stateMutability": "nonpayable",
      "type": "constructor"
    },
    {
      "inputs": [],
      "name": "AccessControlBadConfirmation",
      "type": "error"
    },
    {
      "inputs": [
        {
          "internalType": "address",
          "name": "account",
          "type": "address"
        },
        {
          "internalType": "bytes32",
          "name": "neededRole",
          "type": "bytes32"
        }
      ],
      "name": "AccessControlUnauthorizedAccount",
      "type": "error"
    },
    {
      "inputs": [],
      "name": "ReentrancyGuardReentrantCall",
      "type": "error"
    },
    {
      "anonymous": false,
      "inputs": [
        {
          "indexed": true,
          "internalType": "uint256",
          "name": "id",
          "type": "uint256"
        },
        {
          "indexed": true,
          "internalType": "address",
          "name": "customer",
          "type": "address"
        },
        {
          "indexed": false,
          "internalType": "uint256",
          "name": "amount",
          "type": "uint256"
        },
        {
          "indexed": false,
          "internalType": "string",
          "name": "currency",
          "type": "string"
        },
        {
          "indexed": false,
          "internalType": "string",
          "name": "itemName",
          "type": "string"
        },
        {
          "indexed": false,
          "internalType": "uint256",
          "name": "warrantyExpiryTimestamp",
          "type": "uint256"
        }
      ],
      "name": "ReceiptIssued",
      "type": "event"
    },
    {
      "anonymous": false,
      "inputs": [
        {
          "indexed": true,
          "internalType": "uint256",
          "name": "id",
          "type": "uint256"
        }
      ],
      "name": "ReceiptReturned",
      "type": "event"
    },
    {
      "anonymous": false,
      "inputs": [
        {
          "indexed": true,
          "internalType": "bytes32",
          "name": "role",
          "type": "bytes32"
        },
        {
          "indexed": true,
          "internalType": "bytes32",
          "name": "previousAdminRole",
          "type": "bytes32"
        },
        {
          "indexed": true,
          "internalType": "bytes32",
          "name": "newAdminRole",
          "type": "bytes32"
        }
      ],
      "name": "RoleAdminChanged",
      "type": "event"
    },
    {
      "anonymous": false,
      "inputs": [
        {
          "indexed": true,
          "internalType": "bytes32",
          "name": "role",
          "type": "bytes32"
        },
        {
          "indexed": true,
          "internalType": "address",
          "name": "account",
          "type": "address"
        },
        {
          "indexed": true,
          "internalType": "address",
          "name": "sender",
          "type": "address"
        }
      ],
      "name": "RoleGranted",
      "type": "event"
    },
    {
      "anonymous": false,
      "inputs": [
        {
          "indexed": true,
          "internalType": "bytes32",
          "name": "role",
          "type": "bytes32"
        },
        {
          "indexed": true,
          "internalType": "address",
          "name": "account",
          "type": "address"
        },
        {
          "indexed": true,
          "internalType": "address",
          "name": "sender",
          "type": "address"
        }
      ],
      "name": "RoleRevoked",
      "type": "event"
    },
    {
      "inputs": [],
      "name": "DEFAULT_ADMIN_ROLE",
      "outputs": [
        {
          "internalType": "bytes32",
          "name": "",
          "type": "bytes32"
        }
      ],
      "stateMutability": "view",
      "type": "function"
    },
    {
      "inputs": [],
      "name": "RETAILER_ROLE",
      "outputs": [
        {
          "internalType": "bytes32",
          "name": "",
          "type": "bytes32"
        }
      ],
      "stateMutability": "view",
      "type": "function"
    },
    {
      "inputs": [
        {
          "internalType": "uint256",
          "name": "_receiptId",
          "type": "uint256"
        },
        {
          "internalType": "address",
          "name": "_customer",
          "type": "address"
        }
      ],
      "name": "checkWarranty",
      "outputs": [
        {
          "internalType": "bool",
          "name": "",
          "type": "bool"
        }
      ],
      "stateMutability": "view",
      "type": "function"
    },
    {
      "inputs": [
        {
          "internalType": "address",
          "name": "_customer",
          "type": "address"
        }
      ],
      "name": "getReceiptsByCustomer",
      "outputs": [
        {
          "components": [
            {
              "internalType": "uint256",
              "name": "id",
              "type": "uint256"
            },
            {
              "internalType": "address",
              "name": "customer",
              "type": "address"
            },
            {
              "internalType": "uint256",
              "name": "amount",
              "type": "uint256"
            },
            {
              "internalType": "string",
              "name": "currency",
              "type": "string"
            },
            {
              "internalType": "string",
              "name": "itemName",
              "type": "string"
            },
            {
              "internalType": "uint256",
              "name": "issueTimestamp",
              "type": "uint256"
            },
            {
              "internalType": "uint256",
              "name": "warrantyExpiryTimestamp",
              "type": "uint256"
            },
            {
              "internalType": "string",
              "name": "ipfsHash",
              "type": "string"
            },
            {
              "internalType": "bool",
              "name": "isReturned",
              "type": "bool"
            }
          ],
          "internalType": "struct EcoReceipt.Receipt[]",
          "name": "",
          "type": "tuple[]"
        }
      ],
      "stateMutability": "view",
      "type": "function"
    },
    {
      "inputs": [
        {
          "internalType": "bytes32",
          "name": "role",
          "type": "bytes32"
        }
      ],
      "name": "getRoleAdmin",
      "outputs": [
        {
          "internalType": "bytes32",
          "name": "",
          "type": "bytes32"
        }
      ],
      "stateMutability": "view",
      "type": "function"
    },
    {
      "inputs": [
        {
          "internalType": "bytes32",
          "name": "role",
          "type": "bytes32"
        },
        {
          "internalType": "address",
          "name": "account",
          "type": "address"
        }
      ],
      "name": "grantRole",
      "outputs": [],
      "stateMutability": "nonpayable",
      "type": "function"
    },
    {
      "inputs": [
        {
          "internalType": "bytes32",
          "name": "role",
          "type": "bytes32"
        },
        {
          "internalType": "address",
          "name": "account",
          "type": "address"
        }
      ],
      "name": "hasRole",
      "outputs": [
        {
          "internalType": "bool",
          "name": "",
          "type": "bool"
        }
      ],
      "stateMutability": "view",
      "type": "function"
    },
    {
      "inputs": [
        {
          "internalType": "address",
          "name": "_customer",
          "type": "address"
        },
        {
          "internalType": "uint256",
          "name": "_amount",
          "type": "uint256"
        },
        {
          "internalType": "string",
          "name": "_currency",
          "type": "string"
        },
        {
          "internalType": "string",
          "name": "_itemName",
          "type": "string"
        },
        {
          "internalType": "uint256",
          "name": "_warrantyExpiryTimestamp",
          "type": "uint256"
        },
        {
          "internalType": "string",
          "name": "_ipfsHash",
          "type": "string"
        }
      ],
      "name": "issueReceipt",
      "outputs": [],
      "stateMutability": "nonpayable",
      "type": "function"
    },
    {
      "inputs": [
        {
          "internalType": "uint256",
          "name": "_receiptId",
          "type": "uint256"
        },
        {
          "internalType": "address",
          "name": "_customer",
          "type": "address"
        }
      ],
      "name": "markReturned",
      "outputs": [],
      "stateMutability": "nonpayable",
      "type": "function"
    },
    {
      "inputs": [
        {
          "internalType": "bytes32",
          "name": "role",
          "type": "bytes32"
        },
        {
          "internalType": "address",
          "name": "callerConfirmation",
          "type": "address"
        }
      ],
      "name": "renounceRole",
      "outputs": [],
      "stateMutability": "nonpayable",
      "type": "function"
    },
    {
      "inputs": [
        {
          "internalType": "bytes32",
          "name": "role",
          "type": "bytes32"
        },
        {
          "internalType": "address",
          "name": "account",
          "type": "address"
        }
      ],
      "name": "revokeRole",
      "outputs": [],
      "stateMutability": "nonpayable",
      "type": "function"
    },
    {
      "inputs": [
        {
          "internalType": "bytes4",
          "name": "interfaceId",
          "type": "bytes4"
        }
      ],
      "name": "supportsInterface",
      "outputs": [
        {
          "internalType": "bool",
          "name": "",
          "type": "bool"
        }
      ],
      "stateMutability": "view",
      "type": "function"
    }
  ],
  "bytecode": "0x60806040523480156200001157600080fd5b50600162000034620000286200008a60201b60201c565b620000b560201b60201c565b60000181905550620000506000801b33620000bf60201b60201c565b50620000837f2a5f906c256a5d799494fcd066e1f6c077689de1cdb65052a1624de4bace99bf33620000bf60201b60201c565b5062000234565b60007f9b779b17422d0df92223018b32b4d1fa46e071723d6817e2486d003becc55f0060001b905090565b6000819050919050565b6000620000d38383620001c260201b60201c565b620001b757600160008085815260200190815260200160002060000160008473ffffffffffffffffffffffffffffffffffffffff1673ffffffffffffffffffffffffffffffffffffffff16815260200190815260200160002060006101000a81548160ff021916908315150217905550620001536200022c60201b60201c565b73ffffffffffffffffffffffffffffffffffffffff168273ffffffffffffffffffffffffffffffffffffffff16847f2f8788117e7eff1d82e926ec794901d17c78024a50270940304540a733656f0d60405160405180910390a460019050620001bc565b600090505b92915050565b600080600084815260200190815260200160002060000160008373ffffffffffffffffffffffffffffffffffffffff1673ffffffffffffffffffffffffffffffffffffffff16815260200190815260200160002060009054906101000a900460ff16905092915050565b600033905090565b611ff180620002446000396000f3fe608060405234801561001057600080fd5b50600436106100b45760003560e01c806336568abe1161007157806336568abe1461018b57806391d14854146101a7578063a217fddf146101d7578063a293d863146101f5578063b91f00e414610225578063d547741f14610255576100b4565b806301ffc9a7146100b9578063160903ee146100e95780632115e7bf14610105578063248a9ca3146101235780632f2ff15d14610153578063354278451461016f575b600080fd5b6100d360048036038101906100ce919061139a565b610271565b6040516100e091906113e2565b60405180910390f35b61010360048036038101906100fe91906115d7565b6102eb565b005b61010d61058c565b60405161011a91906116d1565b60405180910390f35b61013d60048036038101906101389190611718565b6105b0565b60405161014a91906116d1565b60405180910390f35b61016d60048036038101906101689190611745565b6105cf565b005b61018960048036038101906101849190611785565b6105f1565b005b6101a560048036038101906101a09190611745565b610812565b005b6101c160048036038101906101bc9190611745565b61088d565b6040516101ce91906113e2565b60405180910390f35b6101df6108f7565b6040516101ec91906116d1565b60405180910390f35b61020f600480360381019061020a9190611785565b6108fe565b60405161021c91906113e2565b60405180910390f35b61023f600480360381019061023a91906117c5565b610c92565b60405161024c9190611a33565b60405180910390f35b61026f600480360381019061026a9190611745565b610f80565b005b60007f7965db0b000000000000000000000000000000000000000000000000000000007bffffffffffffffffffffffffffffffffffffffffffffffffffffffff1916827bffffffffffffffffffffffffffffffffffffffffffffffffffffffff191614806102e457506102e382610fa2565b5b9050919050565b7f2a5f906c256a5d799494fcd066e1f6c077689de1cdb65052a1624de4bace99bf6103158161100c565b61031d611020565b60006001600081548092919061033290611a84565b91905055905060006040518061012001604052808381526020018a73ffffffffffffffffffffffffffffffffffffffff168152602001898152602001888152602001878152602001428152602001868152602001858152602001600015158152509050600260008a73ffffffffffffffffffffffffffffffffffffffff1673ffffffffffffffffffffffffffffffffffffffff1681526020019081526020016000208190806001815401808255809150506001900390600052602060002090600902016000909190919091506000820151816000015560208201518160010160006101000a81548173ffffffffffffffffffffffffffffffffffffffff021916908373ffffffffffffffffffffffffffffffffffffffff16021790555060408201518160020155606082015181600301908161046e9190611cd8565b5060808201518160040190816104849190611cd8565b5060a0820151816005015560c0820151816006015560e08201518160070190816104ae9190611cd8565b506101008201518160080160006101000a81548160ff0219169083151502179055505050336003600084815260200190815260200160002060006101000a81548173ffffffffffffffffffffffffffffffffffffffff021916908373ffffffffffffffffffffffffffffffffffffffff1602179055508873ffffffffffffffffffffffffffffffffffffffff16827f14f91ae57b9f3c0da97fbee63ac0369f733f93f38246966169bfec415a0771838a8a8a8a6040516105719493929190611e03565b60405180910390a35050610583611043565b50505050505050565b7f2a5f906c256a5d799494fcd066e1f6c077689de1cdb65052a1624de4bace99bf81565b6000806000838152602001908152602001600020600101549050919050565b6105d8826105b0565b6105e18161100c565b6105eb838361105e565b50505050565b7f2a5f906c256a5d799494fcd066e1f6c077689de1cdb65052a1624de4bace99bf61061b8161100c565b610623611020565b3373ffffffffffffffffffffffffffffffffffffffff166003600085815260200190815260200160002060009054906101000a900473ffffffffffffffffffffffffffffffffffffffff1673ffffffffffffffffffffffffffffffffffffffff16146106c4576040517f08c379a00000000000000000000000000000000000000000000000000000000081526004016106bb90611ec8565b60405180910390fd5b6000600260008473ffffffffffffffffffffffffffffffffffffffff1673ffffffffffffffffffffffffffffffffffffffff16815260200190815260200160002090506000805b8280549050811015610795578583828154811061072b5761072a611ee8565b5b9060005260206000209060090201600001540361078857600183828154811061075757610756611ee8565b5b906000526020600020906009020160080160006101000a81548160ff02191690831515021790555060019150610795565b808060010191505061070b565b50806107d6576040517f08c379a00000000000000000000000000000000000000000000000000000000081526004016107cd90611f63565b60405180910390fd5b847f8dd7eba6a436bd9b1347519a1fb4f57a7b8d5ff14697be4cb656293c8459809e60405160405180910390a2505061080d611043565b505050565b61081a61114f565b73ffffffffffffffffffffffffffffffffffffffff168173ffffffffffffffffffffffffffffffffffffffff161461087e576040517f6697b23200000000000000000000000000000000000000000000000000000000815260040160405180910390fd5b6108888282611157565b505050565b600080600084815260200190815260200160002060000160008373ffffffffffffffffffffffffffffffffffffffff1673ffffffffffffffffffffffffffffffffffffffff16815260200190815260200160002060009054906101000a900460ff16905092915050565b6000801b81565b600080600260008473ffffffffffffffffffffffffffffffffffffffff1673ffffffffffffffffffffffffffffffffffffffff168152602001908152602001600020805480602002602001604051908101604052809291908181526020016000905b82821015610be2578382906000526020600020906009020160405180610120016040529081600082015481526020016001820160009054906101000a900473ffffffffffffffffffffffffffffffffffffffff1673ffffffffffffffffffffffffffffffffffffffff1673ffffffffffffffffffffffffffffffffffffffff168152602001600282015481526020016003820180546109fe90611afb565b80601f0160208091040260200160405190810160405280929190818152602001828054610a2a90611afb565b8015610a775780601f10610a4c57610100808354040283529160200191610a77565b820191906000526020600020905b815481529060010190602001808311610a5a57829003601f168201915b50505050508152602001600482018054610a9090611afb565b80601f0160208091040260200160405190810160405280929190818152602001828054610abc90611afb565b8015610b095780601f10610ade57610100808354040283529160200191610b09565b820191906000526020600020905b815481529060010190602001808311610aec57829003601f168201915b505050505081526020016005820154815260200160068201548152602001600782018054610b3690611afb565b80601f0160208091040260200160405190810160405280929190818152602001828054610b6290611afb565b8015610baf5780601f10610b8457610100808354040283529160200191610baf565b820191906000526020600020905b815481529060010190602001808311610b9257829003601f168201915b505050505081526020016008820160009054906101000a900460ff16151515158152505081526020019060010190610960565b50505050905060005b8151811015610c505784828281518110610c0857610c07611ee8565b5b60200260200101516000015103610c4357818181518110610c2c57610c2b611ee8565b5b602002602001015160c00151421092505050610c8c565b8080600101915050610beb565b506040517f08c379a0000000000000000000000000000000000000000000000000000000008152600401610c8390611f63565b60405180910390fd5b92915050565b6060600260008373ffffffffffffffffffffffffffffffffffffffff1673ffffffffffffffffffffffffffffffffffffffff168152602001908152602001600020805480602002602001604051908101604052809291908181526020016000905b82821015610f75578382906000526020600020906009020160405180610120016040529081600082015481526020016001820160009054906101000a900473ffffffffffffffffffffffffffffffffffffffff1673ffffffffffffffffffffffffffffffffffffffff1673ffffffffffffffffffffffffffffffffffffffff16815260200160028201548152602001600382018054610d9190611afb565b80601f0160208091040260200160405190810160405280929190818152602001828054610dbd90611afb565b8015610e0a5780601f10610ddf57610100808354040283529160200191610e0a565b820191906000526020600020905b815481529060010190602001808311610ded57829003601f168201915b50505050508152602001600482018054610e2390611afb565b80601f0160208091040260200160405190810160405280929190818152602001828054610e4f90611afb565b8015610e9c5780601f10610e7157610100808354040283529160200191610e9c565b820191906000526020600020905b815481529060010190602001808311610e7f57829003601f168201915b505050505081526020016005820154815260200160068201548152602001600782018054610ec990611afb565b80601f0160208091040260200160405190810160405280929190818152602001828054610ef590611afb565b8015610f425780601f10610f1757610100808354040283529160200191610f42565b820191906000526020600020905b815481529060010190602001808311610f2557829003601f168201915b505050505081526020016008820160009054906101000a900460ff16151515158152505081526020019060010190610cf3565b505050509050919050565b610f89826105b0565b610f928161100c565b610f9c8383611157565b50505050565b60007f01ffc9a7000000000000000000000000000000000000000000000000000000007bffffffffffffffffffffffffffffffffffffffffffffffffffffffff1916827bffffffffffffffffffffffffffffffffffffffffffffffffffffffff1916149050919050565b61101d8161101861114f565b611249565b50565b61102861129a565b600261103a6110356112db565b611306565b60000181905550565b60016110556110506112db565b611306565b60000181905550565b600061106a838361088d565b61114457600160008085815260200190815260200160002060000160008473ffffffffffffffffffffffffffffffffffffffff1673ffffffffffffffffffffffffffffffffffffffff16815260200190815260200160002060006101000a81548160ff0219169083151502179055506110e161114f565b73ffffffffffffffffffffffffffffffffffffffff168273ffffffffffffffffffffffffffffffffffffffff16847f2f8788117e7eff1d82e926ec794901d17c78024a50270940304540a733656f0d60405160405180910390a460019050611149565b600090505b92915050565b600033905090565b6000611163838361088d565b1561123e57600080600085815260200190815260200160002060000160008473ffffffffffffffffffffffffffffffffffffffff1673ffffffffffffffffffffffffffffffffffffffff16815260200190815260200160002060006101000a81548160ff0219169083151502179055506111db61114f565b73ffffffffffffffffffffffffffffffffffffffff168273ffffffffffffffffffffffffffffffffffffffff16847ff6391f5c32d9c69d2a47ea670b442974b53935d1edc7fd64eb21e047a839171b60405160405180910390a460019050611243565b600090505b92915050565b611253828261088d565b6112965780826040517fe2517d3f00000000000000000000000000000000000000000000000000000000815260040161128d929190611f92565b60405180910390fd5b5050565b6112a2611310565b156112d9576040517f3ee5aeb500000000000000000000000000000000000000000000000000000000815260040160405180910390fd5b565b60007f9b779b17422d0df92223018b32b4d1fa46e071723d6817e2486d003becc55f0060001b905090565b6000819050919050565b6000600261132461131f6112db565b611306565b6000015414905090565b6000604051905090565b600080fd5b600080fd5b60007fffffffff0000000000000000000000000000000000000000000000000000000082169050919050565b61137781611342565b811461138257600080fd5b50565b6000813590506113948161136e565b92915050565b6000602082840312156113b0576113af611338565b5b60006113be84828501611385565b91505092915050565b60008115159050919050565b6113dc816113c7565b82525050565b60006020820190506113f760008301846113d3565b92915050565b600073ffffffffffffffffffffffffffffffffffffffff82169050919050565b6000611428826113fd565b9050919050565b6114388161141d565b811461144357600080fd5b50565b6000813590506114558161142f565b92915050565b6000819050919050565b61146e8161145b565b811461147957600080fd5b50565b60008135905061148b81611465565b92915050565b600080fd5b600080fd5b6000601f19601f8301169050919050565b7f4e487b7100000000000000000000000000000000000000000000000000000000600052604160045260246000fd5b6114e48261149b565b810181811067ffffffffffffffff82111715611503576115026114ac565b5b80604052505050565b600061151661132e565b905061152282826114db565b919050565b600067ffffffffffffffff821115611542576115416114ac565b5b61154b8261149b565b9050602081019050919050565b82818337600083830152505050565b600061157a61157584611527565b61150c565b90508281526020810184848401111561159657611595611496565b5b6115a1848285611558565b509392505050565b600082601f8301126115be576115bd611491565b5b81356115ce848260208601611567565b91505092915050565b60008060008060008060c087890312156115f4576115f3611338565b5b600061160289828a01611446565b965050602061161389828a0161147c565b955050604087013567ffffffffffffffff8111156116345761163361133d565b5b61164089828a016115a9565b945050606087013567ffffffffffffffff8111156116615761166061133d565b5b61166d89828a016115a9565b935050608061167e89828a0161147c565b92505060a087013567ffffffffffffffff81111561169f5761169e61133d565b5b6116ab89828a016115a9565b9150509295509295509295565b6000819050919050565b6116cb816116b8565b82525050565b60006020820190506116e660008301846116c2565b92915050565b6116f5816116b8565b811461170057600080fd5b50565b600081359050611712816116ec565b92915050565b60006020828403121561172e5761172d611338565b5b600061173c84828501611703565b91505092915050565b6000806040838503121561175c5761175b611338565b5b600061176a85828601611703565b925050602061177b85828601611446565b9150509250929050565b6000806040838503121561179c5761179b611338565b5b60006117aa8582860161147c565b92505060206117bb85828601611446565b9150509250929050565b6000602082840312156117db576117da611338565b5b60006117e984828501611446565b91505092915050565b600081519050919050565b600082825260208201905092915050565b6000819050602082019050919050565b6118278161145b565b82525050565b6118368161141d565b82525050565b600081519050919050565b600082825260208201905092915050565b60005b8381101561187657808201518184015260208101905061185b565b60008484015250505050565b600061188d8261183c565b6118978185611847565b93506118a7818560208601611858565b6118b08161149b565b840191505092915050565b6118c4816113c7565b82525050565b6000610120830160008301516118e3600086018261181e565b5060208301516118f6602086018261182d565b506040830151611909604086018261181e565b50606083015184820360608601526119218282611882565b9150506080830151848203608086015261193b8282611882565b91505060a083015161195060a086018261181e565b5060c083015161196360c086018261181e565b5060e083015184820360e086015261197b8282611882565b9150506101008301516119926101008601826118bb565b508091505092915050565b60006119a983836118ca565b905092915050565b6000602082019050919050565b60006119c9826117f2565b6119d381856117fd565b9350836020820285016119e58561180e565b8060005b85811015611a215784840389528151611a02858261199d565b9450611a0d836119b1565b925060208a019950506001810190506119e9565b50829750879550505050505092915050565b60006020820190508181036000830152611a4d81846119be565b905092915050565b7f4e487b7100000000000000000000000000000000000000000000000000000000600052601160045260246000fd5b6000611a8f8261145b565b91507fffffffffffffffffffffffffffffffffffffffffffffffffffffffffffffffff8203611ac157611ac0611a55565b5b600182019050919050565b7f4e487b7100000000000000000000000000000000000000000000000000000000600052602260045260246000fd5b60006002820490506001821680611b1357607f821691505b602082108103611b2657611b25611acc565b5b50919050565b60008190508160005260206000209050919050565b60006020601f8301049050919050565b600082821b905092915050565b600060088302611b8e7fffffffffffffffffffffffffffffffffffffffffffffffffffffffffffffffff82611b51565b611b988683611b51565b95508019841693508086168417925050509392505050565b6000819050919050565b6000611bd5611bd0611bcb8461145b565b611bb0565b61145b565b9050919050565b6000819050919050565b611bef83611bba565b611c03611bfb82611bdc565b848454611b5e565b825550505050565b600090565b611c18611c0b565b611c23818484611be6565b505050565b5b81811015611c4757611c3c600082611c10565b600181019050611c29565b5050565b601f821115611c8c57611c5d81611b2c565b611c6684611b41565b81016020851015611c75578190505b611c89611c8185611b41565b830182611c28565b50505b505050565b600082821c905092915050565b6000611caf60001984600802611c91565b1980831691505092915050565b6000611cc88383611c9e565b9150826002028217905092915050565b611ce18261183c565b67ffffffffffffffff811115611cfa57611cf96114ac565b5b611d048254611afb565b611d0f828285611c4b565b600060209050601f831160018114611d425760008415611d30578287015190505b611d3a8582611cbc565b865550611da2565b601f198416611d5086611b2c565b60005b82811015611d7857848901518255600182019150602085019450602081019050611d53565b86831015611d955784890151611d91601f891682611c9e565b8355505b6001600288020188555050505b505050505050565b611db38161145b565b82525050565b600082825260208201905092915050565b6000611dd58261183c565b611ddf8185611db9565b9350611def818560208601611858565b611df88161149b565b840191505092915050565b6000608082019050611e186000830187611daa565b8181036020830152611e2a8186611dca565b90508181036040830152611e3e8185611dca565b9050611e4d6060830184611daa565b95945050505050565b7f4f6e6c792069737375696e672073686f702063616e206d61726b20726574757260008201527f6e65640000000000000000000000000000000000000000000000000000000000602082015250565b6000611eb2602383611db9565b9150611ebd82611e56565b604082019050919050565b60006020820190508181036000830152611ee181611ea5565b9050919050565b7f4e487b7100000000000000000000000000000000000000000000000000000000600052603260045260246000fd5b7f52656365697074206e6f7420666f756e64000000000000000000000000000000600082015250565b6000611f4d601183611db9565b9150611f5882611f17565b602082019050919050565b60006020820190508181036000830152611f7c81611f40565b9050919050565b611f8c8161141d565b82525050565b6000604082019050611fa76000830185611f83565b611fb460208301846116c2565b939250505056fea264697066735822122064d81ff6a0275308b547063797f13e3eb923408ce2f9926ea3f2091030c9341f64736f6c63430008180033",
  "linkReferences": {},
  "deployedLinkReferences": {}
}